{"contracts/Escrow_Dummy.sol":{"Escrow":{"abi":[{"inputs":[],"stateMutability":"nonpayable","type":"constructor"},{"anonymous":false,"inputs":[{"indexed":false,"internalType":"uint256","name":"requestId","type":"uint256"},{"indexed":false,"internalType":"uint256","name":"budget","type":"uint256"}],"name":"UpdatedEvent","type":"event"},{"inputs":[{"internalType":"uint256","name":"requestId","type":"uint256"}],"name":"update_mapping_then_asset_failure","outputs":[],"stateMutability":"nonpayable","type":"function"},{"inputs":[{"internalType":"uint256","name":"requestId","type":"uint256"},{"internalType":"uint256","name":"budget","type":"uint256"}],"name":"update_mapping_then_revert","outputs":[],"stateMutability":"nonpayable","type":"function"},{"inputs":[{"internalType":"uint256","name":"requestId","type":"uint256"},{"internalType":"uint256","name":"budget","type":"uint256"}],"name":"update_mappingthen_success","outputs":[],"stateMutability":"nonpayable","type":"function"}],"evm":{"bytecode":{"linkReferences":{},"object":"608060405234801561001057600080fd5b50610315806100206000396000f3fe608060405234801561001057600080fd5b50600436106100415760003560e01c806355215700146100465780637100e8db14610074578063ec576eb9146100ac575b600080fd5b6100726004803603602081101561005c57600080fd5b81019080803590602001909291905050506100e4565b005b6100aa6004803603604081101561008a57600080fd5b810190808035906020019092919080359060200190929190505050610195565b005b6100e2600480360360408110156100c257600080fd5b8101908080359060200190929190803590602001909291905050506101ef565b005b60008060008381526020019081526020016000205490507f9635d8c2bd4b448a97e7a1589ecc0456cded483d61c72c79ef3109d8ed9b1d5c8282604051808381526020018281526020019250505060405180910390a16000610191576040517f08c379a000000000000000000000000000000000000000000000000000000000815260040180806020018281038252602c8152602001806102b4602c913960400191505060405180910390fd5b5050565b80600080848152602001908152602001600020819055507f9635d8c2bd4b448a97e7a1589ecc0456cded483d61c72c79ef3109d8ed9b1d5c8282604051808381526020018281526020019250505060405180910390a15050565b80600080848152602001908152602001600020819055507f9635d8c2bd4b448a97e7a1589ecc0456cded483d61c72c79ef3109d8ed9b1d5c8282604051808381526020018281526020019250505060405180910390a16040517f08c379a000000000000000000000000000000000000000000000000000000000815260040180806020018281038252601b8152602001807f526576657274696e6720666f722064656d6f6e7374726174696f6e000000000081525060200191505060405180910390fdfe416c77617973206661696c20746f2064656d6f6e73747261746520617373657274696f6e206661696c757265a26469706673582212208d0dbba238fb4cbe2f70bc00a7a4ebf2d3f2f2c718432888da18beca2165763464736f6c63430007030033","opcodes":"PUSH1 0x80 PUSH1 0x40 MSTORE CALLVALUE DUP1 ISZERO PUSH2 0x10 JUMPI PUSH1 0x0 DUP1 REVERT JUMPDEST POP PUSH2 0x315 DUP1 PUSH2 0x20 PUSH1 0x0 CODECOPY PUSH1 0x0 RETURN INVALID PUSH1 0x80 PUSH1 0x40 MSTORE CALLVALUE DUP1 ISZERO PUSH2 0x10 JUMPI PUSH1 0x0 DUP1 REVERT JUMPDEST POP PUSH1 0x4 CALLDATASIZE LT PUSH2 0x41 JUMPI PUSH1 0x0 CALLDATALOAD PUSH1 0xE0 SHR DUP1 PUSH4 0x55215700 EQ PUSH2 0x46 JUMPI DUP1 PUSH4 0x7100E8DB EQ PUSH2 0x74 JUMPI DUP1 PUSH4 0xEC576EB9 EQ PUSH2 0xAC JUMPI JUMPDEST PUSH1 0x0 DUP1 REVERT JUMPDEST PUSH2 0x72 PUSH1 0x4 DUP1 CALLDATASIZE SUB PUSH1 0x20 DUP2 LT ISZERO PUSH2 0x5C JUMPI PUSH1 0x0 DUP1 REVERT JUMPDEST DUP2 ADD SWAP1 DUP1 DUP1 CALLDATALOAD SWAP1 PUSH1 0x20 ADD SWAP1 SWAP3 SWAP2 SWAP1 POP POP POP PUSH2 0xE4 JUMP JUMPDEST STOP JUMPDEST PUSH2 0xAA PUSH1 0x4 DUP1 CALLDATASIZE SUB PUSH1 0x40 DUP2 LT ISZERO PUSH2 0x8A JUMPI PUSH1 0x0 DUP1 REVERT JUMPDEST DUP2 ADD SWAP1 DUP1 DUP1 CALLDATALOAD SWAP1 PUSH1 0x20 ADD SWAP1 SWAP3 SWAP2 SWAP1 DUP1 CALLDATALOAD SWAP1 PUSH1 0x20 ADD SWAP1 SWAP3 SWAP2 SWAP1 POP POP POP PUSH2 0x195 JUMP JUMPDEST STOP JUMPDEST PUSH2 0xE2 PUSH1 0x4 DUP1 CALLDATASIZE SUB PUSH1 0x40 DUP2 LT ISZERO PUSH2 0xC2 JUMPI PUSH1 0x0 DUP1 REVERT JUMPDEST DUP2 ADD SWAP1 DUP1 DUP1 CALLDATALOAD SWAP1 PUSH1 0x20 ADD SWAP1 SWAP3 SWAP2 SWAP1 DUP1 CALLDATALOAD SWAP1 PUSH1 0x20 ADD SWAP1 SWAP3 SWAP2 SWAP1 POP POP POP PUSH2 0x1EF JUMP JUMPDEST STOP JUMPDEST PUSH1 0x0 DUP1 PUSH1 0x0 DUP4 DUP2 MSTORE PUSH1 0x20 ADD SWAP1 DUP2 MSTORE PUSH1 0x20 ADD PUSH1 0x0 KECCAK256 SLOAD SWAP1 POP PUSH32 0x9635D8C2BD4B448A97E7A1589ECC0456CDED483D61C72C79EF3109D8ED9B1D5C DUP3 DUP3 PUSH1 0x40 MLOAD DUP1 DUP4 DUP2 MSTORE PUSH1 0x20 ADD DUP3 DUP2 MSTORE PUSH1 0x20 ADD SWAP3 POP POP POP PUSH1 0x40 MLOAD DUP1 SWAP2 SUB SWAP1 LOG1 PUSH1 0x0 PUSH2 0x191 JUMPI PUSH1 0x40 MLOAD PUSH32 0x8C379A000000000000000000000000000000000000000000000000000000000 DUP2 MSTORE PUSH1 0x4 ADD DUP1 DUP1 PUSH1 0x20 ADD DUP3 DUP2 SUB DUP3 MSTORE PUSH1 0x2C DUP2 MSTORE PUSH1 0x20 ADD DUP1 PUSH2 0x2B4 PUSH1 0x2C SWAP2 CODECOPY PUSH1 0x40 ADD SWAP2 POP POP PUSH1 0x40 MLOAD DUP1 SWAP2 SUB SWAP1 REVERT JUMPDEST POP POP JUMP JUMPDEST DUP1 PUSH1 0x0 DUP1 DUP5 DUP2 MSTORE PUSH1 0x20 ADD SWAP1 DUP2 MSTORE PUSH1 0x20 ADD PUSH1 0x0 KECCAK256 DUP2 SWAP1 SSTORE POP PUSH32 0x9635D8C2BD4B448A97E7A1589ECC0456CDED483D61C72C79EF3109D8ED9B1D5C DUP3 DUP3 PUSH1 0x40 MLOAD DUP1 DUP4 DUP2 MSTORE PUSH1 0x20 ADD DUP3 DUP2 MSTORE PUSH1 0x20 ADD SWAP3 POP POP POP PUSH1 0x40 MLOAD DUP1 SWAP2 SUB SWAP1 LOG1 POP POP JUMP JUMPDEST DUP1 PUSH1 0x0 DUP1 DUP5 DUP2 MSTORE PUSH1 0x20 ADD SWAP1 DUP2 MSTORE PUSH1 0x20 ADD PUSH1 0x0 KECCAK256 DUP2 SWAP1 SSTORE POP PUSH32 0x9635D8C2BD4B448A97E7A1589ECC0456CDED483D61C72C79EF3109D8ED9B1D5C DUP3 DUP3 PUSH1 0x40 MLOAD DUP1 DUP4 DUP2 MSTORE PUSH1 0x20 ADD DUP3 DUP2 MSTORE PUSH1 0x20 ADD SWAP3 POP POP POP PUSH1 0x40 MLOAD DUP1 SWAP2 SUB SWAP1 LOG1 PUSH1 0x40 MLOAD PUSH32 0x8C379A000000000000000000000000000000000000000000000000000000000 DUP2 MSTORE PUSH1 0x4 ADD DUP1 DUP1 PUSH1 0x20 ADD DUP3 DUP2 SUB DUP3 MSTORE PUSH1 0x1B DUP2 MSTORE PUSH1 0x20 ADD DUP1 PUSH32 0x526576657274696E6720666F722064656D6F6E7374726174696F6E0000000000 DUP2 MSTORE POP PUSH1 0x20 ADD SWAP2 POP POP PUSH1 0x40 MLOAD DUP1 SWAP2 SUB SWAP1 REVERT INVALID COINBASE PUSH13 0x77617973206661696C20746F20 PUSH5 0x656D6F6E73 PUSH21 0x7261746520617373657274696F6E206661696C7572 PUSH6 0xA26469706673 PC 0x22 SLT KECCAK256 DUP14 0xD 0xBB LOG2 CODESIZE 0xFB 0x4C 0xBE 0x2F PUSH17 0xBC00A7A4EBF2D3F2F2C718432888DA18BE 0xCA 0x21 PUSH6 0x763464736F6C PUSH4 0x43000703 STOP CALLER "},"methodIdentifiers":{"update_mapping_then_asset_failure(uint256)":"55215700","update_mapping_then_revert(uint256,uint256)":"ec576eb9","update_mappingthen_success(uint256,uint256)":"7100e8db"}}}}}